{
	"data": {
		"bytecode": {
			"linkReferences": {},
			"object": "6080604052348015600e575f5ffd5b50336001806101000a81548173ffffffffffffffffffffffffffffffffffffffff021916908373ffffffffffffffffffffffffffffffffffffffff1602179055506105e98061005c5f395ff3fe608060405234801561000f575f5ffd5b5060043610610086575f3560e01c8063b5400a8311610059578063b5400a8314610102578063b84d51851461011e578063b9e30ac61461013a578063ea865e061461015657610086565b80631ea318dd1461008a57806350f58e53146100a85780638da5cb5b146100c6578063a41de865146100e4575b5f5ffd5b610092610172565b60405161009f9190610277565b60405180910390f35b6100b0610178565b6040516100bd91906102aa565b60405180910390f35b6100ce61018a565b6040516100db9190610302565b60405180910390f35b6100ec6101ae565b6040516100f99190610333565b60405180910390f35b61011c6004803603810190610117919061037e565b6101b3565b005b610138600480360381019061013391906103d3565b6101cf565b005b610154600480360381019061014f9190610428565b610212565b005b610170600480360381019061016b91906104b4565b61022c565b005b60025481565b60015f9054906101000a900460ff1681565b60018054906101000a900473ffffffffffffffffffffffffffffffffffffffff1681565b5f5481565b8060015f6101000a81548160ff02191690831515021790555050565b806001806101000a81548173ffffffffffffffffffffffffffffffffffffffff021916908373ffffffffffffffffffffffffffffffffffffffff16021790555050565b805f5f828254610222919061052c565b9250508190555050565b818160405160200161023f92919061059b565b604051602081830303815290604052805190602001206002819055505050565b5f819050919050565b6102718161025f565b82525050565b5f60208201905061028a5f830184610268565b92915050565b5f8115159050919050565b6102a481610290565b82525050565b5f6020820190506102bd5f83018461029b565b92915050565b5f73ffffffffffffffffffffffffffffffffffffffff82169050919050565b5f6102ec826102c3565b9050919050565b6102fc816102e2565b82525050565b5f6020820190506103155f8301846102f3565b92915050565b5f819050919050565b61032d8161031b565b82525050565b5f6020820190506103465f830184610324565b92915050565b5f5ffd5b5f5ffd5b61035d81610290565b8114610367575f5ffd5b50565b5f8135905061037881610354565b92915050565b5f602082840312156103935761039261034c565b5b5f6103a08482850161036a565b91505092915050565b6103b2816102e2565b81146103bc575f5ffd5b50565b5f813590506103cd816103a9565b92915050565b5f602082840312156103e8576103e761034c565b5b5f6103f5848285016103bf565b91505092915050565b6104078161031b565b8114610411575f5ffd5b50565b5f81359050610422816103fe565b92915050565b5f6020828403121561043d5761043c61034c565b5b5f61044a84828501610414565b91505092915050565b5f5ffd5b5f5ffd5b5f5ffd5b5f5f83601f84011261047457610473610453565b5b8235905067ffffffffffffffff81111561049157610490610457565b5b6020830191508360018202830111156104ad576104ac61045b565b5b9250929050565b5f5f602083850312156104ca576104c961034c565b5b5f83013567ffffffffffffffff8111156104e7576104e6610350565b5b6104f38582860161045f565b92509250509250929050565b7f4e487b71000000000000000000000000000000000000000000000000000000005f52601160045260245ffd5b5f6105368261031b565b91506105418361031b565b9250828201905080821115610559576105586104ff565b5b92915050565b5f81905092915050565b828183375f83830152505050565b5f610582838561055f565b935061058f838584610569565b82840190509392505050565b5f6105a7828486610577565b9150819050939250505056fea2646970667358221220796bb42d2d790a7e18b3dfefefea15fee90f21ff93e1c8f8139a39bc864dbe8e64736f6c634300081e0033",
			"opcodes": "PUSH1 0x80 PUSH1 0x40 MSTORE CALLVALUE DUP1 ISZERO PUSH1 0xE JUMPI PUSH0 PUSH0 REVERT JUMPDEST POP CALLER PUSH1 0x1 DUP1 PUSH2 0x100 EXP DUP2 SLOAD DUP2 PUSH20 0xFFFFFFFFFFFFFFFFFFFFFFFFFFFFFFFFFFFFFFFF MUL NOT AND SWAP1 DUP4 PUSH20 0xFFFFFFFFFFFFFFFFFFFFFFFFFFFFFFFFFFFFFFFF AND MUL OR SWAP1 SSTORE POP PUSH2 0x5E9 DUP1 PUSH2 0x5C PUSH0 CODECOPY PUSH0 RETURN INVALID PUSH1 0x80 PUSH1 0x40 MSTORE CALLVALUE DUP1 ISZERO PUSH2 0xF JUMPI PUSH0 PUSH0 REVERT JUMPDEST POP PUSH1 0x4 CALLDATASIZE LT PUSH2 0x86 JUMPI PUSH0 CALLDATALOAD PUSH1 0xE0 SHR DUP1 PUSH4 0xB5400A83 GT PUSH2 0x59 JUMPI DUP1 PUSH4 0xB5400A83 EQ PUSH2 0x102 JUMPI DUP1 PUSH4 0xB84D5185 EQ PUSH2 0x11E JUMPI DUP1 PUSH4 0xB9E30AC6 EQ PUSH2 0x13A JUMPI DUP1 PUSH4 0xEA865E06 EQ PUSH2 0x156 JUMPI PUSH2 0x86 JUMP JUMPDEST DUP1 PUSH4 0x1EA318DD EQ PUSH2 0x8A JUMPI DUP1 PUSH4 0x50F58E53 EQ PUSH2 0xA8 JUMPI DUP1 PUSH4 0x8DA5CB5B EQ PUSH2 0xC6 JUMPI DUP1 PUSH4 0xA41DE865 EQ PUSH2 0xE4 JUMPI JUMPDEST PUSH0 PUSH0 REVERT JUMPDEST PUSH2 0x92 PUSH2 0x172 JUMP JUMPDEST PUSH1 0x40 MLOAD PUSH2 0x9F SWAP2 SWAP1 PUSH2 0x277 JUMP JUMPDEST PUSH1 0x40 MLOAD DUP1 SWAP2 SUB SWAP1 RETURN JUMPDEST PUSH2 0xB0 PUSH2 0x178 JUMP JUMPDEST PUSH1 0x40 MLOAD PUSH2 0xBD SWAP2 SWAP1 PUSH2 0x2AA JUMP JUMPDEST PUSH1 0x40 MLOAD DUP1 SWAP2 SUB SWAP1 RETURN JUMPDEST PUSH2 0xCE PUSH2 0x18A JUMP JUMPDEST PUSH1 0x40 MLOAD PUSH2 0xDB SWAP2 SWAP1 PUSH2 0x302 JUMP JUMPDEST PUSH1 0x40 MLOAD DUP1 SWAP2 SUB SWAP1 RETURN JUMPDEST PUSH2 0xEC PUSH2 0x1AE JUMP JUMPDEST PUSH1 0x40 MLOAD PUSH2 0xF9 SWAP2 SWAP1 PUSH2 0x333 JUMP JUMPDEST PUSH1 0x40 MLOAD DUP1 SWAP2 SUB SWAP1 RETURN JUMPDEST PUSH2 0x11C PUSH1 0x4 DUP1 CALLDATASIZE SUB DUP2 ADD SWAP1 PUSH2 0x117 SWAP2 SWAP1 PUSH2 0x37E JUMP JUMPDEST PUSH2 0x1B3 JUMP JUMPDEST STOP JUMPDEST PUSH2 0x138 PUSH1 0x4 DUP1 CALLDATASIZE SUB DUP2 ADD SWAP1 PUSH2 0x133 SWAP2 SWAP1 PUSH2 0x3D3 JUMP JUMPDEST PUSH2 0x1CF JUMP JUMPDEST STOP JUMPDEST PUSH2 0x154 PUSH1 0x4 DUP1 CALLDATASIZE SUB DUP2 ADD SWAP1 PUSH2 0x14F SWAP2 SWAP1 PUSH2 0x428 JUMP JUMPDEST PUSH2 0x212 JUMP JUMPDEST STOP JUMPDEST PUSH2 0x170 PUSH1 0x4 DUP1 CALLDATASIZE SUB DUP2 ADD SWAP1 PUSH2 0x16B SWAP2 SWAP1 PUSH2 0x4B4 JUMP JUMPDEST PUSH2 0x22C JUMP JUMPDEST STOP JUMPDEST PUSH1 0x2 SLOAD DUP2 JUMP JUMPDEST PUSH1 0x1 PUSH0 SWAP1 SLOAD SWAP1 PUSH2 0x100 EXP SWAP1 DIV PUSH1 0xFF AND DUP2 JUMP JUMPDEST PUSH1 0x1 DUP1 SLOAD SWAP1 PUSH2 0x100 EXP SWAP1 DIV PUSH20 0xFFFFFFFFFFFFFFFFFFFFFFFFFFFFFFFFFFFFFFFF AND DUP2 JUMP JUMPDEST PUSH0 SLOAD DUP2 JUMP JUMPDEST DUP1 PUSH1 0x1 PUSH0 PUSH2 0x100 EXP DUP2 SLOAD DUP2 PUSH1 0xFF MUL NOT AND SWAP1 DUP4 ISZERO ISZERO MUL OR SWAP1 SSTORE POP POP JUMP JUMPDEST DUP1 PUSH1 0x1 DUP1 PUSH2 0x100 EXP DUP2 SLOAD DUP2 PUSH20 0xFFFFFFFFFFFFFFFFFFFFFFFFFFFFFFFFFFFFFFFF MUL NOT AND SWAP1 DUP4 PUSH20 0xFFFFFFFFFFFFFFFFFFFFFFFFFFFFFFFFFFFFFFFF AND MUL OR SWAP1 SSTORE POP POP JUMP JUMPDEST DUP1 PUSH0 PUSH0 DUP3 DUP3 SLOAD PUSH2 0x222 SWAP2 SWAP1 PUSH2 0x52C JUMP JUMPDEST SWAP3 POP POP DUP2 SWAP1 SSTORE POP POP JUMP JUMPDEST DUP2 DUP2 PUSH1 0x40 MLOAD PUSH1 0x20 ADD PUSH2 0x23F SWAP3 SWAP2 SWAP1 PUSH2 0x59B JUMP JUMPDEST PUSH1 0x40 MLOAD PUSH1 0x20 DUP2 DUP4 SUB SUB DUP2 MSTORE SWAP1 PUSH1 0x40 MSTORE DUP1 MLOAD SWAP1 PUSH1 0x20 ADD KECCAK256 PUSH1 0x2 DUP2 SWAP1 SSTORE POP POP POP JUMP JUMPDEST PUSH0 DUP2 SWAP1 POP SWAP2 SWAP1 POP JUMP JUMPDEST PUSH2 0x271 DUP2 PUSH2 0x25F JUMP JUMPDEST DUP3 MSTORE POP POP JUMP JUMPDEST PUSH0 PUSH1 0x20 DUP3 ADD SWAP1 POP PUSH2 0x28A PUSH0 DUP4 ADD DUP5 PUSH2 0x268 JUMP JUMPDEST SWAP3 SWAP2 POP POP JUMP JUMPDEST PUSH0 DUP2 ISZERO ISZERO SWAP1 POP SWAP2 SWAP1 POP JUMP JUMPDEST PUSH2 0x2A4 DUP2 PUSH2 0x290 JUMP JUMPDEST DUP3 MSTORE POP POP JUMP JUMPDEST PUSH0 PUSH1 0x20 DUP3 ADD SWAP1 POP PUSH2 0x2BD PUSH0 DUP4 ADD DUP5 PUSH2 0x29B JUMP JUMPDEST SWAP3 SWAP2 POP POP JUMP JUMPDEST PUSH0 PUSH20 0xFFFFFFFFFFFFFFFFFFFFFFFFFFFFFFFFFFFFFFFF DUP3 AND SWAP1 POP SWAP2 SWAP1 POP JUMP JUMPDEST PUSH0 PUSH2 0x2EC DUP3 PUSH2 0x2C3 JUMP JUMPDEST SWAP1 POP SWAP2 SWAP1 POP JUMP JUMPDEST PUSH2 0x2FC DUP2 PUSH2 0x2E2 JUMP JUMPDEST DUP3 MSTORE POP POP JUMP JUMPDEST PUSH0 PUSH1 0x20 DUP3 ADD SWAP1 POP PUSH2 0x315 PUSH0 DUP4 ADD DUP5 PUSH2 0x2F3 JUMP JUMPDEST SWAP3 SWAP2 POP POP JUMP JUMPDEST PUSH0 DUP2 SWAP1 POP SWAP2 SWAP1 POP JUMP JUMPDEST PUSH2 0x32D DUP2 PUSH2 0x31B JUMP JUMPDEST DUP3 MSTORE POP POP JUMP JUMPDEST PUSH0 PUSH1 0x20 DUP3 ADD SWAP1 POP PUSH2 0x346 PUSH0 DUP4 ADD DUP5 PUSH2 0x324 JUMP JUMPDEST SWAP3 SWAP2 POP POP JUMP JUMPDEST PUSH0 PUSH0 REVERT JUMPDEST PUSH0 PUSH0 REVERT JUMPDEST PUSH2 0x35D DUP2 PUSH2 0x290 JUMP JUMPDEST DUP2 EQ PUSH2 0x367 JUMPI PUSH0 PUSH0 REVERT JUMPDEST POP JUMP JUMPDEST PUSH0 DUP2 CALLDATALOAD SWAP1 POP PUSH2 0x378 DUP2 PUSH2 0x354 JUMP JUMPDEST SWAP3 SWAP2 POP POP JUMP JUMPDEST PUSH0 PUSH1 0x20 DUP3 DUP5 SUB SLT ISZERO PUSH2 0x393 JUMPI PUSH2 0x392 PUSH2 0x34C JUMP JUMPDEST JUMPDEST PUSH0 PUSH2 0x3A0 DUP5 DUP3 DUP6 ADD PUSH2 0x36A JUMP JUMPDEST SWAP2 POP POP SWAP3 SWAP2 POP POP JUMP JUMPDEST PUSH2 0x3B2 DUP2 PUSH2 0x2E2 JUMP JUMPDEST DUP2 EQ PUSH2 0x3BC JUMPI PUSH0 PUSH0 REVERT JUMPDEST POP JUMP JUMPDEST PUSH0 DUP2 CALLDATALOAD SWAP1 POP PUSH2 0x3CD DUP2 PUSH2 0x3A9 JUMP JUMPDEST SWAP3 SWAP2 POP POP JUMP JUMPDEST PUSH0 PUSH1 0x20 DUP3 DUP5 SUB SLT ISZERO PUSH2 0x3E8 JUMPI PUSH2 0x3E7 PUSH2 0x34C JUMP JUMPDEST JUMPDEST PUSH0 PUSH2 0x3F5 DUP5 DUP3 DUP6 ADD PUSH2 0x3BF JUMP JUMPDEST SWAP2 POP POP SWAP3 SWAP2 POP POP JUMP JUMPDEST PUSH2 0x407 DUP2 PUSH2 0x31B JUMP JUMPDEST DUP2 EQ PUSH2 0x411 JUMPI PUSH0 PUSH0 REVERT JUMPDEST POP JUMP JUMPDEST PUSH0 DUP2 CALLDATALOAD SWAP1 POP PUSH2 0x422 DUP2 PUSH2 0x3FE JUMP JUMPDEST SWAP3 SWAP2 POP POP JUMP JUMPDEST PUSH0 PUSH1 0x20 DUP3 DUP5 SUB SLT ISZERO PUSH2 0x43D JUMPI PUSH2 0x43C PUSH2 0x34C JUMP JUMPDEST JUMPDEST PUSH0 PUSH2 0x44A DUP5 DUP3 DUP6 ADD PUSH2 0x414 JUMP JUMPDEST SWAP2 POP POP SWAP3 SWAP2 POP POP JUMP JUMPDEST PUSH0 PUSH0 REVERT JUMPDEST PUSH0 PUSH0 REVERT JUMPDEST PUSH0 PUSH0 REVERT JUMPDEST PUSH0 PUSH0 DUP4 PUSH1 0x1F DUP5 ADD SLT PUSH2 0x474 JUMPI PUSH2 0x473 PUSH2 0x453 JUMP JUMPDEST JUMPDEST DUP3 CALLDATALOAD SWAP1 POP PUSH8 0xFFFFFFFFFFFFFFFF DUP2 GT ISZERO PUSH2 0x491 JUMPI PUSH2 0x490 PUSH2 0x457 JUMP JUMPDEST JUMPDEST PUSH1 0x20 DUP4 ADD SWAP2 POP DUP4 PUSH1 0x1 DUP3 MUL DUP4 ADD GT ISZERO PUSH2 0x4AD JUMPI PUSH2 0x4AC PUSH2 0x45B JUMP JUMPDEST JUMPDEST SWAP3 POP SWAP3 SWAP1 POP JUMP JUMPDEST PUSH0 PUSH0 PUSH1 0x20 DUP4 DUP6 SUB SLT ISZERO PUSH2 0x4CA JUMPI PUSH2 0x4C9 PUSH2 0x34C JUMP JUMPDEST JUMPDEST PUSH0 DUP4 ADD CALLDATALOAD PUSH8 0xFFFFFFFFFFFFFFFF DUP2 GT ISZERO PUSH2 0x4E7 JUMPI PUSH2 0x4E6 PUSH2 0x350 JUMP JUMPDEST JUMPDEST PUSH2 0x4F3 DUP6 DUP3 DUP7 ADD PUSH2 0x45F JUMP JUMPDEST SWAP3 POP SWAP3 POP POP SWAP3 POP SWAP3 SWAP1 POP JUMP JUMPDEST PUSH32 0x4E487B7100000000000000000000000000000000000000000000000000000000 PUSH0 MSTORE PUSH1 0x11 PUSH1 0x4 MSTORE PUSH1 0x24 PUSH0 REVERT JUMPDEST PUSH0 PUSH2 0x536 DUP3 PUSH2 0x31B JUMP JUMPDEST SWAP2 POP PUSH2 0x541 DUP4 PUSH2 0x31B JUMP JUMPDEST SWAP3 POP DUP3 DUP3 ADD SWAP1 POP DUP1 DUP3 GT ISZERO PUSH2 0x559 JUMPI PUSH2 0x558 PUSH2 0x4FF JUMP JUMPDEST JUMPDEST SWAP3 SWAP2 POP POP JUMP JUMPDEST PUSH0 DUP2 SWAP1 POP SWAP3 SWAP2 POP POP JUMP JUMPDEST DUP3 DUP2 DUP4 CALLDATACOPY PUSH0 DUP4 DUP4 ADD MSTORE POP POP POP JUMP JUMPDEST PUSH0 PUSH2 0x582 DUP4 DUP6 PUSH2 0x55F JUMP JUMPDEST SWAP4 POP PUSH2 0x58F DUP4 DUP6 DUP5 PUSH2 0x569 JUMP JUMPDEST DUP3 DUP5 ADD SWAP1 POP SWAP4 SWAP3 POP POP POP JUMP JUMPDEST PUSH0 PUSH2 0x5A7 DUP3 DUP5 DUP7 PUSH2 0x577 JUMP JUMPDEST SWAP2 POP DUP2 SWAP1 POP SWAP4 SWAP3 POP POP POP JUMP INVALID LOG2 PUSH5 0x6970667358 0x22 SLT KECCAK256 PUSH26 0x6BB42D2D790A7E18B3DFEFEFEA15FEE90F21FF93E1C8F8139A39 0xBC DUP7 0x4D 0xBE DUP15 PUSH5 0x736F6C6343 STOP ADDMOD 0x1E STOP CALLER "
		},
		"gasEstimates": {
			"creation": {
				"codeDepositCost": "302600",
				"executionCost": "24657",
				"totalCost": "327257"
			},
			"external": {
				"asignarPausado(bool)": "24673",
				"cambiarOwner(address)": "24788",
				"clave()": "2426",
				"incrementar(uint256)": "infinite",
				"owner()": "2601",
				"pausado()": "2489",
				"saldo()": "2491",
				"setClave(string)": "infinite"
			}
		},
		"methodIdentifiers": {
			"asignarPausado(bool)": "b5400a83",
			"cambiarOwner(address)": "b84d5185",
			"clave()": "1ea318dd",
			"incrementar(uint256)": "b9e30ac6",
			"owner()": "8da5cb5b",
			"pausado()": "50f58e53",
			"saldo()": "a41de865",
			"setClave(string)": "ea865e06"
		}
	},
	"abi": [
		{
			"inputs": [],
			"stateMutability": "nonpayable",
			"type": "constructor"
		},
		{
			"inputs": [
				{
					"internalType": "bool",
					"name": "valor",
					"type": "bool"
				}
			],
			"name": "asignarPausado",
			"outputs": [],
			"stateMutability": "nonpayable",
			"type": "function"
		},
		{
			"inputs": [
				{
					"internalType": "address",
					"name": "_nuevoPropietario",
					"type": "address"
				}
			],
			"name": "cambiarOwner",
			"outputs": [],
			"stateMutability": "nonpayable",
			"type": "function"
		},
		{
			"inputs": [],
			"name": "clave",
			"outputs": [
				{
					"internalType": "bytes32",
					"name": "",
					"type": "bytes32"
				}
			],
			"stateMutability": "view",
			"type": "function"
		},
		{
			"inputs": [
				{
					"internalType": "uint256",
					"name": "valor",
					"type": "uint256"
				}
			],
			"name": "incrementar",
			"outputs": [],
			"stateMutability": "nonpayable",
			"type": "function"
		},
		{
			"inputs": [],
			"name": "owner",
			"outputs": [
				{
					"internalType": "address",
					"name": "",
					"type": "address"
				}
			],
			"stateMutability": "view",
			"type": "function"
		},
		{
			"inputs": [],
			"name": "pausado",
			"outputs": [
				{
					"internalType": "bool",
					"name": "",
					"type": "bool"
				}
			],
			"stateMutability": "view",
			"type": "function"
		},
		{
			"inputs": [],
			"name": "saldo",
			"outputs": [
				{
					"internalType": "uint256",
					"name": "",
					"type": "uint256"
				}
			],
			"stateMutability": "view",
			"type": "function"
		},
		{
			"inputs": [
				{
					"internalType": "string",
					"name": "_str",
					"type": "string"
				}
			],
			"name": "setClave",
			"outputs": [],
			"stateMutability": "nonpayable",
			"type": "function"
		}
	]
}